{
  "_format": "hh-sol-artifact-1",
  "contractName": "SoundsOfSummer",
  "sourceName": "contracts/SoundsOfSummer.sol",
  "abi": [
    {
      "inputs": [],
      "stateMutability": "nonpayable",
      "type": "constructor"
    },
    {
      "inputs": [],
      "name": "ApprovalCallerNotOwnerNorApproved",
      "type": "error"
    },
    {
      "inputs": [],
      "name": "ApprovalQueryForNonexistentToken",
      "type": "error"
    },
    {
      "inputs": [],
      "name": "BalanceQueryForZeroAddress",
      "type": "error"
    },
    {
      "inputs": [],
      "name": "MintERC2309QuantityExceedsLimit",
      "type": "error"
    },
    {
      "inputs": [],
      "name": "MintToZeroAddress",
      "type": "error"
    },
    {
      "inputs": [],
      "name": "MintZeroQuantity",
      "type": "error"
    },
    {
      "inputs": [],
      "name": "NotCompatibleWithSpotMints",
      "type": "error"
    },
    {
      "inputs": [
        {
          "internalType": "address",
          "name": "owner",
          "type": "address"
        }
      ],
      "name": "OwnableInvalidOwner",
      "type": "error"
    },
    {
      "inputs": [
        {
          "internalType": "address",
          "name": "account",
          "type": "address"
        }
      ],
      "name": "OwnableUnauthorizedAccount",
      "type": "error"
    },
    {
      "inputs": [],
      "name": "OwnerQueryForNonexistentToken",
      "type": "error"
    },
    {
      "inputs": [],
      "name": "OwnershipNotInitializedForExtraData",
      "type": "error"
    },
    {
      "inputs": [],
      "name": "ReentrancyGuardReentrantCall",
      "type": "error"
    },
    {
      "inputs": [],
      "name": "SequentialMintExceedsLimit",
      "type": "error"
    },
    {
      "inputs": [],
      "name": "SequentialUpToTooSmall",
      "type": "error"
    },
    {
      "inputs": [],
      "name": "SpotMintTokenIdTooSmall",
      "type": "error"
    },
    {
      "inputs": [],
      "name": "TokenAlreadyExists",
      "type": "error"
    },
    {
      "inputs": [],
      "name": "TransferCallerNotOwnerNorApproved",
      "type": "error"
    },
    {
      "inputs": [],
      "name": "TransferFromIncorrectOwner",
      "type": "error"
    },
    {
      "inputs": [],
      "name": "TransferToNonERC721ReceiverImplementer",
      "type": "error"
    },
    {
      "inputs": [],
      "name": "TransferToZeroAddress",
      "type": "error"
    },
    {
      "inputs": [],
      "name": "URIQueryForNonexistentToken",
      "type": "error"
    },
    {
      "anonymous": false,
      "inputs": [
        {
          "indexed": true,
          "internalType": "address",
          "name": "owner",
          "type": "address"
        },
        {
          "indexed": true,
          "internalType": "address",
          "name": "approved",
          "type": "address"
        },
        {
          "indexed": true,
          "internalType": "uint256",
          "name": "tokenId",
          "type": "uint256"
        }
      ],
      "name": "Approval",
      "type": "event"
    },
    {
      "anonymous": false,
      "inputs": [
        {
          "indexed": true,
          "internalType": "address",
          "name": "owner",
          "type": "address"
        },
        {
          "indexed": true,
          "internalType": "address",
          "name": "operator",
          "type": "address"
        },
        {
          "indexed": false,
          "internalType": "bool",
          "name": "approved",
          "type": "bool"
        }
      ],
      "name": "ApprovalForAll",
      "type": "event"
    },
    {
      "anonymous": false,
      "inputs": [
        {
          "indexed": true,
          "internalType": "uint256",
          "name": "fromTokenId",
          "type": "uint256"
        },
        {
          "indexed": false,
          "internalType": "uint256",
          "name": "toTokenId",
          "type": "uint256"
        },
        {
          "indexed": true,
          "internalType": "address",
          "name": "from",
          "type": "address"
        },
        {
          "indexed": true,
          "internalType": "address",
          "name": "to",
          "type": "address"
        }
      ],
      "name": "ConsecutiveTransfer",
      "type": "event"
    },
    {
      "anonymous": false,
      "inputs": [
        {
          "indexed": true,
          "internalType": "address",
          "name": "previousOwner",
          "type": "address"
        },
        {
          "indexed": true,
          "internalType": "address",
          "name": "newOwner",
          "type": "address"
        }
      ],
      "name": "OwnershipTransferred",
      "type": "event"
    },
    {
      "anonymous": false,
      "inputs": [
        {
          "indexed": true,
          "internalType": "address",
          "name": "from",
          "type": "address"
        },
        {
          "indexed": true,
          "internalType": "address",
          "name": "to",
          "type": "address"
        },
        {
          "indexed": true,
          "internalType": "uint256",
          "name": "tokenId",
          "type": "uint256"
        }
      ],
      "name": "Transfer",
      "type": "event"
    },
    {
      "inputs": [
        {
          "internalType": "address",
          "name": "to",
          "type": "address"
        },
        {
          "internalType": "uint256",
          "name": "tokenId",
          "type": "uint256"
        }
      ],
      "name": "approve",
      "outputs": [],
      "stateMutability": "payable",
      "type": "function"
    },
    {
      "inputs": [
        {
          "internalType": "address",
          "name": "owner",
          "type": "address"
        }
      ],
      "name": "balanceOf",
      "outputs": [
        {
          "internalType": "uint256",
          "name": "",
          "type": "uint256"
        }
      ],
      "stateMutability": "view",
      "type": "function"
    },
    {
      "inputs": [
        {
          "internalType": "uint256",
          "name": "tokenId",
          "type": "uint256"
        }
      ],
      "name": "getApproved",
      "outputs": [
        {
          "internalType": "address",
          "name": "",
          "type": "address"
        }
      ],
      "stateMutability": "view",
      "type": "function"
    },
    {
      "inputs": [
        {
          "internalType": "address",
          "name": "owner",
          "type": "address"
        },
        {
          "internalType": "address",
          "name": "operator",
          "type": "address"
        }
      ],
      "name": "isApprovedForAll",
      "outputs": [
        {
          "internalType": "bool",
          "name": "",
          "type": "bool"
        }
      ],
      "stateMutability": "view",
      "type": "function"
    },
    {
      "inputs": [],
      "name": "name",
      "outputs": [
        {
          "internalType": "string",
          "name": "",
          "type": "string"
        }
      ],
      "stateMutability": "view",
      "type": "function"
    },
    {
      "inputs": [],
      "name": "owner",
      "outputs": [
        {
          "internalType": "address",
          "name": "",
          "type": "address"
        }
      ],
      "stateMutability": "view",
      "type": "function"
    },
    {
      "inputs": [
        {
          "internalType": "uint256",
          "name": "tokenId",
          "type": "uint256"
        }
      ],
      "name": "ownerOf",
      "outputs": [
        {
          "internalType": "address",
          "name": "",
          "type": "address"
        }
      ],
      "stateMutability": "view",
      "type": "function"
    },
    {
      "inputs": [
        {
          "internalType": "uint256",
          "name": "tokenId",
          "type": "uint256"
        }
      ],
      "name": "publicBuildAttributesJSON",
      "outputs": [
        {
          "internalType": "string",
          "name": "",
          "type": "string"
        }
      ],
      "stateMutability": "view",
      "type": "function"
    },
    {
      "inputs": [
        {
          "internalType": "uint256",
          "name": "tokenId",
          "type": "uint256"
        }
      ],
      "name": "publicBuildHTML",
      "outputs": [
        {
          "internalType": "string",
          "name": "",
          "type": "string"
        }
      ],
      "stateMutability": "view",
      "type": "function"
    },
    {
      "inputs": [
        {
          "internalType": "uint256",
          "name": "tokenId",
          "type": "uint256"
        }
      ],
      "name": "publicBuildSVG",
      "outputs": [
        {
          "internalType": "string",
          "name": "",
          "type": "string"
        }
      ],
      "stateMutability": "view",
      "type": "function"
    },
    {
      "inputs": [],
      "name": "publicGetAudioFileUrl",
      "outputs": [
        {
          "internalType": "string",
          "name": "",
          "type": "string"
        }
      ],
      "stateMutability": "view",
      "type": "function"
    },
    {
      "inputs": [
        {
          "internalType": "uint256",
          "name": "quantity",
          "type": "uint256"
        }
      ],
      "name": "publicMint",
      "outputs": [],
      "stateMutability": "payable",
      "type": "function"
    },
    {
      "inputs": [
        {
          "internalType": "string",
          "name": "newURL",
          "type": "string"
        }
      ],
      "name": "publicSetAudioFileUrl",
      "outputs": [],
      "stateMutability": "nonpayable",
      "type": "function"
    },
    {
      "inputs": [
        {
          "internalType": "bytes32",
          "name": "hash",
          "type": "bytes32"
        }
      ],
      "name": "publicSetMerkleTreeRoot",
      "outputs": [],
      "stateMutability": "nonpayable",
      "type": "function"
    },
    {
      "inputs": [
        {
          "internalType": "bytes32[]",
          "name": "proof",
          "type": "bytes32[]"
        }
      ],
      "name": "publicSongbirdzMint",
      "outputs": [],
      "stateMutability": "nonpayable",
      "type": "function"
    },
    {
      "inputs": [],
      "name": "publicWithdraw",
      "outputs": [],
      "stateMutability": "nonpayable",
      "type": "function"
    },
    {
      "inputs": [],
      "name": "renounceOwnership",
      "outputs": [],
      "stateMutability": "nonpayable",
      "type": "function"
    },
    {
      "inputs": [
        {
          "internalType": "address",
          "name": "from",
          "type": "address"
        },
        {
          "internalType": "address",
          "name": "to",
          "type": "address"
        },
        {
          "internalType": "uint256",
          "name": "tokenId",
          "type": "uint256"
        }
      ],
      "name": "safeTransferFrom",
      "outputs": [],
      "stateMutability": "payable",
      "type": "function"
    },
    {
      "inputs": [
        {
          "internalType": "address",
          "name": "from",
          "type": "address"
        },
        {
          "internalType": "address",
          "name": "to",
          "type": "address"
        },
        {
          "internalType": "uint256",
          "name": "tokenId",
          "type": "uint256"
        },
        {
          "internalType": "bytes",
          "name": "_data",
          "type": "bytes"
        }
      ],
      "name": "safeTransferFrom",
      "outputs": [],
      "stateMutability": "payable",
      "type": "function"
    },
    {
      "inputs": [
        {
          "internalType": "address",
          "name": "operator",
          "type": "address"
        },
        {
          "internalType": "bool",
          "name": "approved",
          "type": "bool"
        }
      ],
      "name": "setApprovalForAll",
      "outputs": [],
      "stateMutability": "nonpayable",
      "type": "function"
    },
    {
      "inputs": [
        {
          "internalType": "bytes4",
          "name": "interfaceId",
          "type": "bytes4"
        }
      ],
      "name": "supportsInterface",
      "outputs": [
        {
          "internalType": "bool",
          "name": "",
          "type": "bool"
        }
      ],
      "stateMutability": "view",
      "type": "function"
    },
    {
      "inputs": [],
      "name": "symbol",
      "outputs": [
        {
          "internalType": "string",
          "name": "",
          "type": "string"
        }
      ],
      "stateMutability": "view",
      "type": "function"
    },
    {
      "inputs": [
        {
          "internalType": "uint256",
          "name": "tokenId",
          "type": "uint256"
        }
      ],
      "name": "tokenURI",
      "outputs": [
        {
          "internalType": "string",
          "name": "",
          "type": "string"
        }
      ],
      "stateMutability": "view",
      "type": "function"
    },
    {
      "inputs": [],
      "name": "totalSupply",
      "outputs": [
        {
          "internalType": "uint256",
          "name": "result",
          "type": "uint256"
        }
      ],
      "stateMutability": "view",
      "type": "function"
    },
    {
      "inputs": [
        {
          "internalType": "address",
          "name": "from",
          "type": "address"
        },
        {
          "internalType": "address",
          "name": "to",
          "type": "address"
        },
        {
          "internalType": "uint256",
          "name": "tokenId",
          "type": "uint256"
        }
      ],
      "name": "transferFrom",
      "outputs": [],
      "stateMutability": "payable",
      "type": "function"
    },
    {
      "inputs": [
        {
          "internalType": "address",
          "name": "newOwner",
          "type": "address"
        }
      ],
      "name": "transferOwnership",
      "outputs": [],
      "stateMutability": "nonpayable",
      "type": "function"
    }
  ],
  "bytecode": "0x60c060405234801561001057600080fd5b50336040518060400160405280600e81526020017f536f756e64734f6653756d6d65720000000000000000000000000000000000008152506040518060400160405280601081526020017f534f554e44535f4f465f53554d4d455200000000000000000000000000000000815250816002908161008d9190610ab7565b50806003908161009d9190610ab7565b506100ac61076a60201b60201c565b6000819055506100c061076a60201b60201c565b6100ce61076f60201b60201c565b10156100eb576100ea63fed8210f60e01b61079760201b60201c565b5b5050600073ffffffffffffffffffffffffffffffffffffffff168173ffffffffffffffffffffffffffffffffffffffff160361015f5760006040517f1e4fbdf70000000000000000000000000000000000000000000000000000000081526004016101569190610bca565b60405180910390fd5b61016e816107a160201b60201c565b506001600a81905550737bc1c072742d8391817eb4eb2317f98dc72c61db73ffffffffffffffffffffffffffffffffffffffff1660808173ffffffffffffffffffffffffffffffffffffffff168152505060805173ffffffffffffffffffffffffffffffffffffffff1660a08173ffffffffffffffffffffffffffffffffffffffff16815250506040518060400160405280600681526020017f3138333033410000000000000000000000000000000000000000000000000000815250600d600060128152602001908152602001600020908161024b9190610ab7565b506040518060400160405280600681526020017f3733363733300000000000000000000000000000000000000000000000000000815250600d60006013815260200190815260200160002090816102a29190610ab7565b506040518060400160405280600681526020017f4143413239320000000000000000000000000000000000000000000000000000815250600d60006014815260200190815260200160002090816102f99190610ab7565b506040518060400160405280600681526020017f3138333033410000000000000000000000000000000000000000000000000000815250600d60006015815260200190815260200160002090816103509190610ab7565b506040518060400160405280600681526020017f4143413239320000000000000000000000000000000000000000000000000000815250600d6000601a815260200190815260200160002090816103a79190610ab7565b506040518060400160405280600681526020017f4430363830390000000000000000000000000000000000000000000000000000815250600d6000601b815260200190815260200160002090816103fe9190610ab7565b506040518060400160405280600681526020017f4541343533410000000000000000000000000000000000000000000000000000815250600d6000601c815260200190815260200160002090816104559190610ab7565b506040518060400160405280600681526020017f3733363733300000000000000000000000000000000000000000000000000000815250600d6000601d815260200190815260200160002090816104ac9190610ab7565b506040518060400160405280600681526020017f3733363733300000000000000000000000000000000000000000000000000000815250600d60006022815260200190815260200160002090816105039190610ab7565b506040518060400160405280600681526020017f4541343533410000000000000000000000000000000000000000000000000000815250600d600060238152602001908152602001600020908161055a9190610ab7565b506040518060400160405280600681526020017f4430363830390000000000000000000000000000000000000000000000000000815250600d60006024815260200190815260200160002090816105b19190610ab7565b506040518060400160405280600681526020017f4143413239320000000000000000000000000000000000000000000000000000815250600d60006025815260200190815260200160002090816106089190610ab7565b506040518060400160405280600681526020017f3138333033410000000000000000000000000000000000000000000000000000815250600d6000602a8152602001908152602001600020908161065f9190610ab7565b506040518060400160405280600681526020017f4143413239320000000000000000000000000000000000000000000000000000815250600d6000602b815260200190815260200160002090816106b69190610ab7565b506040518060400160405280600681526020017f3733363733300000000000000000000000000000000000000000000000000000815250600d6000602c8152602001908152602001600020908161070d9190610ab7565b506040518060400160405280600681526020017f3138333033410000000000000000000000000000000000000000000000000000815250600d6000602d815260200190815260200160002090816107649190610ab7565b50610be5565b600090565b60007fffffffffffffffffffffffffffffffffffffffffffffffffffffffffffffffff905090565b8060005260046000fd5b6000600960009054906101000a900473ffffffffffffffffffffffffffffffffffffffff16905081600960006101000a81548173ffffffffffffffffffffffffffffffffffffffff021916908373ffffffffffffffffffffffffffffffffffffffff1602179055508173ffffffffffffffffffffffffffffffffffffffff168173ffffffffffffffffffffffffffffffffffffffff167f8be0079c531659141344cd1fd0a4f28419497f9722a3daafe3b4186f6b6457e060405160405180910390a35050565b600081519050919050565b7f4e487b7100000000000000000000000000000000000000000000000000000000600052604160045260246000fd5b7f4e487b7100000000000000000000000000000000000000000000000000000000600052602260045260246000fd5b600060028204905060018216806108e857607f821691505b6020821081036108fb576108fa6108a1565b5b50919050565b60008190508160005260206000209050919050565b60006020601f8301049050919050565b600082821b905092915050565b6000600883026109637fffffffffffffffffffffffffffffffffffffffffffffffffffffffffffffffff82610926565b61096d8683610926565b95508019841693508086168417925050509392505050565b6000819050919050565b6000819050919050565b60006109b46109af6109aa84610985565b61098f565b610985565b9050919050565b6000819050919050565b6109ce83610999565b6109e26109da826109bb565b848454610933565b825550505050565b600090565b6109f76109ea565b610a028184846109c5565b505050565b5b81811015610a2657610a1b6000826109ef565b600181019050610a08565b5050565b601f821115610a6b57610a3c81610901565b610a4584610916565b81016020851015610a54578190505b610a68610a6085610916565b830182610a07565b50505b505050565b600082821c905092915050565b6000610a8e60001984600802610a70565b1980831691505092915050565b6000610aa78383610a7d565b9150826002028217905092915050565b610ac082610867565b67ffffffffffffffff811115610ad957610ad8610872565b5b610ae382546108d0565b610aee828285610a2a565b600060209050601f831160018114610b215760008415610b0f578287015190505b610b198582610a9b565b865550610b81565b601f198416610b2f86610901565b60005b82811015610b5757848901518255600182019150602085019450602081019050610b32565b86831015610b745784890151610b70601f891682610a7d565b8355505b6001600288020188555050505b505050505050565b600073ffffffffffffffffffffffffffffffffffffffff82169050919050565b6000610bb482610b89565b9050919050565b610bc481610ba9565b82525050565b6000602082019050610bdf6000830184610bbb565b92915050565b60805160a0516159c3610c0e60003960008181611e0f0152611eb60152600050506159c36000f3fe6080604052600436106101815760003560e01c8063617c443a116100d1578063a22cb4651161008a578063ba00660f11610064578063ba00660f1461054f578063c87b56dd14610566578063e985e9c5146105a3578063f2fde38b146105e057610181565b8063a22cb465146104e1578063b10b350b1461050a578063b88d4fde1461053357610181565b8063617c443a146103bd5780636352211e146103fa57806370a0823114610437578063715018a6146104745780638da5cb5b1461048b57806395d89b41146104b657610181565b80631c3cadd61161013e5780632db11544116101185780632db11544146103315780633c5bd9db1461034d5780633df501d91461037657806342842e0e146103a157610181565b80631c3cadd61461029b57806323b872dd146102d8578063270044eb146102f457610181565b806301ffc9a71461018657806306fdde03146101c3578063081812fc146101ee578063095ea7b31461022b57806318160ddd146102475780631966a96214610272575b600080fd5b34801561019257600080fd5b506101ad60048036038101906101a89190612e27565b610609565b6040516101ba9190612e6f565b60405180910390f35b3480156101cf57600080fd5b506101d861069b565b6040516101e59190612f1a565b60405180910390f35b3480156101fa57600080fd5b5061021560048036038101906102109190612f72565b61072d565b6040516102229190612fe0565b60405180910390f35b61024560048036038101906102409190613027565b61078b565b005b34801561025357600080fd5b5061025c61079b565b6040516102699190613076565b60405180910390f35b34801561027e57600080fd5b50610299600480360381019061029491906130f6565b6107e8565b005b3480156102a757600080fd5b506102c260048036038101906102bd9190612f72565b610948565b6040516102cf9190612f1a565b60405180910390f35b6102f260048036038101906102ed9190613143565b6109a8565b005b34801561030057600080fd5b5061031b60048036038101906103169190612f72565b610c69565b6040516103289190612f1a565b60405180910390f35b61034b60048036038101906103469190612f72565b610e37565b005b34801561035957600080fd5b50610374600480360381019061036f91906131cc565b610f15565b005b34801561038257600080fd5b5061038b610f27565b6040516103989190612f1a565b60405180910390f35b6103bb60048036038101906103b69190613143565b610fb9565b005b3480156103c957600080fd5b506103e460048036038101906103df9190612f72565b610fd9565b6040516103f19190612f1a565b60405180910390f35b34801561040657600080fd5b50610421600480360381019061041c9190612f72565b611039565b60405161042e9190612fe0565b60405180910390f35b34801561044357600080fd5b5061045e600480360381019061045991906131f9565b61104b565b60405161046b9190613076565b60405180910390f35b34801561048057600080fd5b506104896110e2565b005b34801561049757600080fd5b506104a06110f6565b6040516104ad9190612fe0565b60405180910390f35b3480156104c257600080fd5b506104cb611120565b6040516104d89190612f1a565b60405180910390f35b3480156104ed57600080fd5b5061050860048036038101906105039190613252565b6111b2565b005b34801561051657600080fd5b50610531600480360381019061052c91906133c2565b6112bd565b005b61054d600480360381019061054891906134ac565b6112d8565b005b34801561055b57600080fd5b5061056461132a565b005b34801561057257600080fd5b5061058d60048036038101906105889190612f72565b6113f1565b60405161059a9190612f1a565b60405180910390f35b3480156105af57600080fd5b506105ca60048036038101906105c5919061352f565b6114e9565b6040516105d79190612e6f565b60405180910390f35b3480156105ec57600080fd5b50610607600480360381019061060291906131f9565b61157d565b005b60006301ffc9a760e01b827bffffffffffffffffffffffffffffffffffffffffffffffffffffffff1916148061066457506380ac58cd60e01b827bffffffffffffffffffffffffffffffffffffffffffffffffffffffff1916145b806106945750635b5e139f60e01b827bffffffffffffffffffffffffffffffffffffffffffffffffffffffff1916145b9050919050565b6060600280546106aa9061359e565b80601f01602080910402602001604051908101604052809291908181526020018280546106d69061359e565b80156107235780601f106106f857610100808354040283529160200191610723565b820191906000526020600020905b81548152906001019060200180831161070657829003601f168201915b5050505050905090565b600061073882611603565b61074d5761074c63cf4700e460e01b6116af565b5b6006600083815260200190815260200160002060000160009054906101000a900473ffffffffffffffffffffffffffffffffffffffff169050919050565b610797828260016116b9565b5050565b60006107a56117e8565b600154600054030390507fffffffffffffffffffffffffffffffffffffffffffffffffffffffffffffffff6107d86117ed565b146107e557600854810190505b90565b6107f0611815565b600e60003373ffffffffffffffffffffffffffffffffffffffff1673ffffffffffffffffffffffffffffffffffffffff16815260200190815260200160002060009054906101000a900460ff161561087d576040517f08c379a00000000000000000000000000000000000000000000000000000000081526004016108749061361b565b60405180910390fd5b610887828261185b565b6108c6576040517f08c379a00000000000000000000000000000000000000000000000000000000081526004016108bd90613687565b60405180910390fd5b620100006108d26118d9565b101561093c576001600e60003373ffffffffffffffffffffffffffffffffffffffff1673ffffffffffffffffffffffffffffffffffffffff16815260200190815260200160002060006101000a81548160ff02191690831515021790555061093b3360016118e2565b5b610944611900565b5050565b606061095382611603565b610992576040517f08c379a0000000000000000000000000000000000000000000000000000000008152600401610989906136f3565b60405180910390fd5b600061099d8361190a565b905080915050919050565b60006109b382611bfc565b905073ffffffffffffffffffffffffffffffffffffffff8473ffffffffffffffffffffffffffffffffffffffff161693508373ffffffffffffffffffffffffffffffffffffffff168173ffffffffffffffffffffffffffffffffffffffff1614610a2857610a2763a114810060e01b6116af565b5b600080610a3484611d15565b91509150610a4a8187610a45611d3c565b611d44565b610a7557610a5f86610a5a611d3c565b6114e9565b610a7457610a736359c896be60e01b6116af565b5b5b610a828686866001611d88565b8015610a8d57600082555b600560008773ffffffffffffffffffffffffffffffffffffffff1673ffffffffffffffffffffffffffffffffffffffff168152602001908152602001600020600081546001900391905081905550600560008673ffffffffffffffffffffffffffffffffffffffff1673ffffffffffffffffffffffffffffffffffffffff1681526020019081526020016000206000815460010191905081905550610b5b85610b37888887611d8e565b7c020000000000000000000000000000000000000000000000000000000017611db6565b600460008681526020019081526020016000208190555060007c0200000000000000000000000000000000000000000000000000000000841603610be15760006001850190506000600460008381526020019081526020016000205403610bdf576000548114610bde578360046000838152602001908152602001600020819055505b5b505b600073ffffffffffffffffffffffffffffffffffffffff8673ffffffffffffffffffffffffffffffffffffffff161690508481887fddf252ad1be2c89b69c2b068fc378daa952ba7f163c4a11628f55a4df523b3ef600080a460008103610c5357610c5263ea553b3460e01b6116af565b5b610c608787876001611de1565b50505050505050565b6060610c7482611603565b610cb3576040517f08c379a0000000000000000000000000000000000000000000000000000000008152600401610caa906136f3565b60405180910390fd5b6000610cf36040518060400160405280600681526020017f3733363733300000000000000000000000000000000000000000000000000000815250611de7565b90506000610d356040518060400160405280600681526020017f4143413239320000000000000000000000000000000000000000000000000000815250611de7565b90506000610d776040518060400160405280600681526020017f4430363830390000000000000000000000000000000000000000000000000000815250611de7565b90506000610db96040518060400160405280600681526020017f4541343533410000000000000000000000000000000000000000000000000000815250611de7565b90506000610dfb6040518060400160405280600681526020017f3138333033410000000000000000000000000000000000000000000000000000815250611de7565b905060008585858585604051602001610e18959493929190613a21565b6040516020818303038152906040529050809650505050505050919050565b610e3f611815565b600081118015610e50575060198111155b610e8f576040517f08c379a0000000000000000000000000000000000000000000000000000000008152600401610e8690613b05565b60405180910390fd5b3481655af3107a4000610ea29190613b54565b14610ee2576040517f08c379a0000000000000000000000000000000000000000000000000000000008152600401610ed990613be2565b60405180910390fd5b6201000081610eef6118d9565b610ef99190613c02565b1015610f0a57610f0933826118e2565b5b610f12611900565b50565b610f1d6122a5565b80600b8190555050565b6060600c8054610f369061359e565b80601f0160208091040260200160405190810160405280929190818152602001828054610f629061359e565b8015610faf5780601f10610f8457610100808354040283529160200191610faf565b820191906000526020600020905b815481529060010190602001808311610f9257829003601f168201915b5050505050905090565b610fd4838383604051806020016040528060008152506112d8565b505050565b6060610fe482611603565b611023576040517f08c379a000000000000000000000000000000000000000000000000000000000815260040161101a906136f3565b60405180910390fd5b600061102e8361232c565b905080915050919050565b600061104482611bfc565b9050919050565b60008073ffffffffffffffffffffffffffffffffffffffff168273ffffffffffffffffffffffffffffffffffffffff160361109157611090638f4eb60460e01b6116af565b5b67ffffffffffffffff600560008473ffffffffffffffffffffffffffffffffffffffff1673ffffffffffffffffffffffffffffffffffffffff16815260200190815260200160002054169050919050565b6110ea6122a5565b6110f4600061239f565b565b6000600960009054906101000a900473ffffffffffffffffffffffffffffffffffffffff16905090565b60606003805461112f9061359e565b80601f016020809104026020016040519081016040528092919081815260200182805461115b9061359e565b80156111a85780601f1061117d576101008083540402835291602001916111a8565b820191906000526020600020905b81548152906001019060200180831161118b57829003601f168201915b5050505050905090565b80600760006111bf611d3c565b73ffffffffffffffffffffffffffffffffffffffff1673ffffffffffffffffffffffffffffffffffffffff16815260200190815260200160002060008473ffffffffffffffffffffffffffffffffffffffff1673ffffffffffffffffffffffffffffffffffffffff16815260200190815260200160002060006101000a81548160ff0219169083151502179055508173ffffffffffffffffffffffffffffffffffffffff1661126c611d3c565b73ffffffffffffffffffffffffffffffffffffffff167f17307eab39ab6107e8899845ad3d59bd9653f200f220920489ca2b5937696c31836040516112b19190612e6f565b60405180910390a35050565b6112c56122a5565b80600c90816112d49190613de2565b5050565b6112e38484846109a8565b60008373ffffffffffffffffffffffffffffffffffffffff163b146113245761130e84848484612465565b6113235761132263d1a57ed660e01b6116af565b5b5b50505050565b6113326122a5565b61133a611815565b60003373ffffffffffffffffffffffffffffffffffffffff164760405161136090613ee5565b60006040518083038185875af1925050503d806000811461139d576040519150601f19603f3d011682016040523d82523d6000602084013e6113a2565b606091505b50509050806113e6576040517f08c379a00000000000000000000000000000000000000000000000000000000081526004016113dd90613f46565b60405180910390fd5b506113ef611900565b565b60606113fc82611603565b61143b576040517f08c379a0000000000000000000000000000000000000000000000000000000008152600401611432906136f3565b60405180910390fd5b600061144683610948565b9050600061145382612594565b9050600061146085610fd9565b9050600061146d82612594565b9050600061147a87610c69565b9050600061148788612706565b82868560405160200161149d9493929190614212565b604051602081830303815290604052905060006114b982612594565b9050806040516020016114cc91906142de565b604051602081830303815290604052975050505050505050919050565b6000600760008473ffffffffffffffffffffffffffffffffffffffff1673ffffffffffffffffffffffffffffffffffffffff16815260200190815260200160002060008373ffffffffffffffffffffffffffffffffffffffff1673ffffffffffffffffffffffffffffffffffffffff16815260200190815260200160002060009054906101000a900460ff16905092915050565b6115856122a5565b600073ffffffffffffffffffffffffffffffffffffffff168173ffffffffffffffffffffffffffffffffffffffff16036115f75760006040517f1e4fbdf70000000000000000000000000000000000000000000000000000000081526004016115ee9190612fe0565b60405180910390fd5b6116008161239f565b50565b60008161160e6117e8565b116116a95761161b6117ed565b8211156116455761163e60046000848152602001908152602001600020546127d4565b90506116aa565b6000548210156116a85760005b6000600460008581526020019081526020016000205491508103611681578261167a90614300565b9250611652565b60007c01000000000000000000000000000000000000000000000000000000008216149150505b5b5b919050565b8060005260046000fd5b60006116c483611039565b905081801561170657508073ffffffffffffffffffffffffffffffffffffffff166116ed611d3c565b73ffffffffffffffffffffffffffffffffffffffff1614155b156117325761171c81611717611d3c565b6114e9565b6117315761173063cfb3b94260e01b6116af565b5b5b836006600085815260200190815260200160002060000160006101000a81548173ffffffffffffffffffffffffffffffffffffffff021916908373ffffffffffffffffffffffffffffffffffffffff160217905550828473ffffffffffffffffffffffffffffffffffffffff168273ffffffffffffffffffffffffffffffffffffffff167f8c5be1e5ebec7d5bd14f71427d1e84f3dd0314c0f7b2291e5b200ac8c7c3b92560405160405180910390a450505050565b600090565b60007fffffffffffffffffffffffffffffffffffffffffffffffffffffffffffffffff905090565b6002600a5403611851576040517f3ee5aeb500000000000000000000000000000000000000000000000000000000815260040160405180910390fd5b6002600a81905550565b60006118d1838380806020026020016040519081016040528093929190818152602001838360200280828437600081840152601f19601f82011690508083019250505050505050600b54336040516020016118b69190614371565b60405160208183030381529060405280519060200120612815565b905092915050565b60008054905090565b6118fc82826040518060200160405280600081525061282c565b5050565b6001600a81905550565b606060006040518060c00160405280609481526020016158fa60949139905060006040518060e0016040528060c08152602001614f5b60c09139905060005b6008811015611b9b5760005b6008811015611b8d57600060088261196d9190613b54565b836119789190613c02565b905060606000600d6000848152602001908152602001600020805461199c9061359e565b905014611a4657600d600083815260200190815260200160002080546119c19061359e565b80601f01602080910402602001604051908101604052809291908181526020018280546119ed9061359e565b8015611a3a5780601f10611a0f57610100808354040283529160200191611a3a565b820191906000526020600020905b815481529060010190602001808311611a1d57829003601f168201915b50505050509050611b2e565b6000601884611a559190613b54565b600386611a629190613b54565b611a6c9190613c02565b905060006010878381518110611a8557611a8461438c565b5b602001015160f81c60f81b60f81c60ff16901b600888600185611aa89190613c02565b81518110611ab957611ab861438c565b5b602001015160f81c60f81b60f81c60ff16901b88600285611ada9190613c02565b81518110611aeb57611aea61438c565b5b602001015160f81c60f81b60f81c60ff16611b069190613c02565b611b109190613c02565b9050611b29818b600285611b249190613b54565b6128a8565b925050505b85611b44606486611b3f9190613b54565b612706565b611b59606486611b549190613b54565b612706565b83604051602001611b6d9493929190614511565b604051602081830303815290604052955050508080600101915050611955565b508080600101915050611949565b50816040518060400160405280600681526020017f3c2f7376673e0000000000000000000000000000000000000000000000000000815250604051602001611be492919061457b565b60405160208183030381529060405292505050919050565b600081611c076117e8565b11611cff5760046000838152602001908152602001600020549050611c2a6117ed565b821115611c4f57611c3a816127d4565b611d1057611c4e63df2d9b4260e01b6116af565b5b60008103611cd6576000548210611c7157611c7063df2d9b4260e01b6116af565b5b5b60046000836001900393508381526020019081526020016000205490506000810315611cd15760007c010000000000000000000000000000000000000000000000000000000082160315611d1057611cd063df2d9b4260e01b6116af565b5b611c72565b60007c010000000000000000000000000000000000000000000000000000000082160315611d10575b611d0f63df2d9b4260e01b6116af565b5b919050565b60008060006006600085815260200190815260200160002090508092508254915050915091565b600033905090565b600073ffffffffffffffffffffffffffffffffffffffff8316925073ffffffffffffffffffffffffffffffffffffffff821691508382148383141790509392505050565b50505050565b60008060e883901c905060e8611da5868684612a2f565b62ffffff16901b9150509392505050565b600073ffffffffffffffffffffffffffffffffffffffff83169250814260a01b178317905092915050565b50505050565b6060600082604051602001611dfc91906145eb565b60405160208183030381529060405290507f000000000000000000000000000000000000000000000000000000000000000073ffffffffffffffffffffffffffffffffffffffff1663e17f7e08826040518263ffffffff1660e01b8152600401611e669190612f1a565b600060405180830381865afa925050508015611ea557506040513d6000823e3d601f19601f82011682018060405250810190611ea29190614826565b60015b611eb257829150506122a0565b60007f000000000000000000000000000000000000000000000000000000000000000073ffffffffffffffffffffffffffffffffffffffff166344ef8f7d83600001516040518263ffffffff1660e01b8152600401611f119190613076565b600060405180830381865afa158015611f2e573d6000803e3d6000fd5b505050506040513d6000823e3d601f19601f82011682018060405250810190611f57919061486f565b90506000819050600060405180606001604052806023815260200161505b60239139905060006040518060400160405280600281526020017f227d00000000000000000000000000000000000000000000000000000000000081525090506000805b83518551611fc791906148b8565b8110156120b05760006001905060005b855181101561208657858181518110611ff357611ff261438c565b5b602001015160f81c60f81b7effffffffffffffffffffffffffffffffffffffffffffffffffffffffffffff191687828561202d9190613c02565b8151811061203e5761203d61438c565b5b602001015160f81c60f81b7effffffffffffffffffffffffffffffffffffffffffffffffffffffffffffff1916146120795760009150612086565b8080600101915050611fd7565b5080156120a25784518261209a9190613c02565b9250506120b0565b508080600101915050611fb9565b50600081905060008290505b835186516120ca91906148b8565b8110156121a75760006001905060005b8551811015612189578581815181106120f6576120f561438c565b5b602001015160f81c60f81b7effffffffffffffffffffffffffffffffffffffffffffffffffffffffffffff19168882856121309190613c02565b815181106121415761214061438c565b5b602001015160f81c60f81b7effffffffffffffffffffffffffffffffffffffffffffffffffffffffffffff19161461217c5760009150612189565b80806001019150506120da565b50801561219957819250506121a7565b5080806001019150506120bc565b50600082826121b691906148b8565b67ffffffffffffffff8111156121cf576121ce613297565b5b6040519080825280601f01601f1916602001820160405280156122015781602001600182028036833780820191505090505b50905060005b838361221391906148b8565b811015612292578681856122279190613c02565b815181106122385761223761438c565b5b602001015160f81c60f81b8282815181106122565761225561438c565b5b60200101907effffffffffffffffffffffffffffffffffffffffffffffffffffffffffffff1916908160001a9053508080600101915050612207565b508099505050505050505050505b919050565b6122ad612a38565b73ffffffffffffffffffffffffffffffffffffffff166122cb6110f6565b73ffffffffffffffffffffffffffffffffffffffff161461232a576122ee612a38565b6040517f118cdaa70000000000000000000000000000000000000000000000000000000081526004016123219190612fe0565b60405180910390fd5b565b606061233782612706565b600c61235a6040518060e0016040528060c08152602001614f5b60c09139612594565b604051806108a0016040528061087c815260200161507e61087c91396040516020016123899493929190614d50565b6040516020818303038152906040529050919050565b6000600960009054906101000a900473ffffffffffffffffffffffffffffffffffffffff16905081600960006101000a81548173ffffffffffffffffffffffffffffffffffffffff021916908373ffffffffffffffffffffffffffffffffffffffff1602179055508173ffffffffffffffffffffffffffffffffffffffff168173ffffffffffffffffffffffffffffffffffffffff167f8be0079c531659141344cd1fd0a4f28419497f9722a3daafe3b4186f6b6457e060405160405180910390a35050565b60008373ffffffffffffffffffffffffffffffffffffffff1663150b7a0261248b611d3c565b8786866040518563ffffffff1660e01b81526004016124ad9493929190614e3b565b6020604051808303816000875af19250505080156124e957506040513d601f19601f820116820180604052508101906124e69190614e9c565b60015b612541573d8060008114612519576040519150601f19603f3d011682016040523d82523d6000602084013e61251e565b606091505b5060008151036125395761253863d1a57ed660e01b6116af565b5b805181602001fd5b63150b7a0260e01b7bffffffffffffffffffffffffffffffffffffffffffffffffffffffff1916817bffffffffffffffffffffffffffffffffffffffffffffffffffffffff191614915050949350505050565b606060008251036125b657604051806020016040528060008152509050612701565b600060405180606001604052806040815260200161501b60409139905060006003600285516125e59190613c02565b6125ef9190614ef8565b60046125fb9190613b54565b67ffffffffffffffff81111561261457612613613297565b5b6040519080825280601f01601f1916602001820160405280156126465781602001600182028036833780820191505090505b50905060018201602082018586518701602081018051600082525b828410156126bc576003840193508351603f8160121c168701518653600186019550603f81600c1c168701518653600186019550603f8160061c168701518653600186019550603f8116870151865360018601955050612661565b80825260038a5106600181146126d957600281146126ec576126f4565b603d6001870353603d60028703536126f4565b603d60018703535b5050505050505080925050505b919050565b60606000600161271584612a40565b01905060008167ffffffffffffffff81111561273457612733613297565b5b6040519080825280601f01601f1916602001820160405280156127665781602001600182028036833780820191505090505b509050600082602001820190505b6001156127c9578080600190039150507f3031323334353637383961626364656600000000000000000000000000000000600a86061a8153600a85816127bd576127bc614ec9565b5b04945060008503612774575b819350505050919050565b60007c0100000000000000000000000000000000000000000000000000000000821673ffffffffffffffffffffffffffffffffffffffff8316119050919050565b6000826128228584612b93565b1490509392505050565b6128368383612be3565b60008373ffffffffffffffffffffffffffffffffffffffff163b146128a357600080549050600083820390505b6128766000868380600101945086612465565b61288b5761288a63d1a57ed660e01b6116af565b5b8181106128635781600054146128a057600080fd5b50505b505050565b606060008284866128b99190613c02565b6128c39190613c02565b905063045d9f3b81601083901c186128db9190613b54565b905063045d9f3b81601083901c186128f39190613b54565b905080601082901c18905063010000008161290e9190614f29565b90506000600667ffffffffffffffff81111561292d5761292c613297565b5b6040519080825280601f01601f19166020018201604052801561295f5781602001600182028036833780820191505090505b50905060005b6006811015612a22576040518060400160405280601081526020017f3031323334353637383961626364656600000000000000000000000000000000815250600f8260046129b39190613b54565b85901c16815181106129c8576129c761438c565b5b602001015160f81c60f81b8282815181106129e6576129e561438c565b5b60200101907effffffffffffffffffffffffffffffffffffffffffffffffffffffffffffff1916908160001a9053508080600101915050612965565b5080925050509392505050565b60009392505050565b600033905090565b600080600090507a184f03e93ff9f4daa797ed6e38ed64bf6a1f0100000000000000008310612a9e577a184f03e93ff9f4daa797ed6e38ed64bf6a1f0100000000000000008381612a9457612a93614ec9565b5b0492506040810190505b6d04ee2d6d415b85acef81000000008310612adb576d04ee2d6d415b85acef81000000008381612ad157612ad0614ec9565b5b0492506020810190505b662386f26fc100008310612b0a57662386f26fc100008381612b0057612aff614ec9565b5b0492506010810190505b6305f5e1008310612b33576305f5e1008381612b2957612b28614ec9565b5b0492506008810190505b6127108310612b58576127108381612b4e57612b4d614ec9565b5b0492506004810190505b60648310612b7b5760648381612b7157612b70614ec9565b5b0492506002810190505b600a8310612b8a576001810190505b80915050919050565b60008082905060005b8451811015612bd857612bc982868381518110612bbc57612bbb61438c565b5b6020026020010151612d69565b91508080600101915050612b9c565b508091505092915050565b60008054905060008203612c0257612c0163b562e8dd60e01b6116af565b5b612c0f6000848385611d88565b612c2f83612c206000866000611d8e565b612c2985612d94565b17611db6565b6004600083815260200190815260200160002081905550600160406001901b178202600560008573ffffffffffffffffffffffffffffffffffffffff1673ffffffffffffffffffffffffffffffffffffffff16815260200190815260200160002060008282540192505081905550600073ffffffffffffffffffffffffffffffffffffffff8473ffffffffffffffffffffffffffffffffffffffff1616905060008103612ce757612ce6632e07630060e01b6116af565b5b600083830190506000839050612cfb6117ed565b600183031115612d1657612d156381647e3a60e01b6116af565b5b5b808360007fddf252ad1be2c89b69c2b068fc378daa952ba7f163c4a11628f55a4df523b3ef600080a4818160010191508103612d175781600081905550505050612d646000848385611de1565b505050565b6000818310612d8157612d7c8284612da4565b612d8c565b612d8b8383612da4565b5b905092915050565b60006001821460e11b9050919050565b600082600052816020526040600020905092915050565b6000604051905090565b600080fd5b600080fd5b60007fffffffff0000000000000000000000000000000000000000000000000000000082169050919050565b612e0481612dcf565b8114612e0f57600080fd5b50565b600081359050612e2181612dfb565b92915050565b600060208284031215612e3d57612e3c612dc5565b5b6000612e4b84828501612e12565b91505092915050565b60008115159050919050565b612e6981612e54565b82525050565b6000602082019050612e846000830184612e60565b92915050565b600081519050919050565b600082825260208201905092915050565b60005b83811015612ec4578082015181840152602081019050612ea9565b60008484015250505050565b6000601f19601f8301169050919050565b6000612eec82612e8a565b612ef68185612e95565b9350612f06818560208601612ea6565b612f0f81612ed0565b840191505092915050565b60006020820190508181036000830152612f348184612ee1565b905092915050565b6000819050919050565b612f4f81612f3c565b8114612f5a57600080fd5b50565b600081359050612f6c81612f46565b92915050565b600060208284031215612f8857612f87612dc5565b5b6000612f9684828501612f5d565b91505092915050565b600073ffffffffffffffffffffffffffffffffffffffff82169050919050565b6000612fca82612f9f565b9050919050565b612fda81612fbf565b82525050565b6000602082019050612ff56000830184612fd1565b92915050565b61300481612fbf565b811461300f57600080fd5b50565b60008135905061302181612ffb565b92915050565b6000806040838503121561303e5761303d612dc5565b5b600061304c85828601613012565b925050602061305d85828601612f5d565b9150509250929050565b61307081612f3c565b82525050565b600060208201905061308b6000830184613067565b92915050565b600080fd5b600080fd5b600080fd5b60008083601f8401126130b6576130b5613091565b5b8235905067ffffffffffffffff8111156130d3576130d2613096565b5b6020830191508360208202830111156130ef576130ee61309b565b5b9250929050565b6000806020838503121561310d5761310c612dc5565b5b600083013567ffffffffffffffff81111561312b5761312a612dca565b5b613137858286016130a0565b92509250509250929050565b60008060006060848603121561315c5761315b612dc5565b5b600061316a86828701613012565b935050602061317b86828701613012565b925050604061318c86828701612f5d565b9150509250925092565b6000819050919050565b6131a981613196565b81146131b457600080fd5b50565b6000813590506131c6816131a0565b92915050565b6000602082840312156131e2576131e1612dc5565b5b60006131f0848285016131b7565b91505092915050565b60006020828403121561320f5761320e612dc5565b5b600061321d84828501613012565b91505092915050565b61322f81612e54565b811461323a57600080fd5b50565b60008135905061324c81613226565b92915050565b6000806040838503121561326957613268612dc5565b5b600061327785828601613012565b92505060206132888582860161323d565b9150509250929050565b600080fd5b7f4e487b7100000000000000000000000000000000000000000000000000000000600052604160045260246000fd5b6132cf82612ed0565b810181811067ffffffffffffffff821117156132ee576132ed613297565b5b80604052505050565b6000613301612dbb565b905061330d82826132c6565b919050565b600067ffffffffffffffff82111561332d5761332c613297565b5b61333682612ed0565b9050602081019050919050565b82818337600083830152505050565b600061336561336084613312565b6132f7565b90508281526020810184848401111561338157613380613292565b5b61338c848285613343565b509392505050565b600082601f8301126133a9576133a8613091565b5b81356133b9848260208601613352565b91505092915050565b6000602082840312156133d8576133d7612dc5565b5b600082013567ffffffffffffffff8111156133f6576133f5612dca565b5b61340284828501613394565b91505092915050565b600067ffffffffffffffff82111561342657613425613297565b5b61342f82612ed0565b9050602081019050919050565b600061344f61344a8461340b565b6132f7565b90508281526020810184848401111561346b5761346a613292565b5b613476848285613343565b509392505050565b600082601f83011261349357613492613091565b5b81356134a384826020860161343c565b91505092915050565b600080600080608085870312156134c6576134c5612dc5565b5b60006134d487828801613012565b94505060206134e587828801613012565b93505060406134f687828801612f5d565b925050606085013567ffffffffffffffff81111561351757613516612dca565b5b6135238782880161347e565b91505092959194509250565b6000806040838503121561354657613545612dc5565b5b600061355485828601613012565b925050602061356585828601613012565b9150509250929050565b7f4e487b7100000000000000000000000000000000000000000000000000000000600052602260045260246000fd5b600060028204905060018216806135b657607f821691505b6020821081036135c9576135c861356f565b5b50919050565b7f416c7265616479206d696e7465642031204e4654000000000000000000000000600082015250565b6000613605601483612e95565b9150613610826135cf565b602082019050919050565b60006020820190508181036000830152613634816135f8565b9050919050565b7f4e6f7420696e2074686520616c6c6f776c697374000000000000000000000000600082015250565b6000613671601483612e95565b915061367c8261363b565b602082019050919050565b600060208201905081810360008301526136a081613664565b9050919050565b7f546f6b656e20646f6573206e6f74206578697374000000000000000000000000600082015250565b60006136dd601483612e95565b91506136e8826136a7565b602082019050919050565b6000602082019050818103600083015261370c816136d0565b9050919050565b600081905092915050565b7f5b00000000000000000000000000000000000000000000000000000000000000600082015250565b6000613754600183613713565b915061375f8261371e565b600182019050919050565b7f7b2274726169745f74797065223a22436f6c6f722031222c2276616c7565223a60008201527f2200000000000000000000000000000000000000000000000000000000000000602082015250565b60006137c6602183613713565b91506137d18261376a565b602182019050919050565b60006137e782612e8a565b6137f18185613713565b9350613801818560208601612ea6565b80840191505092915050565b7f227d2c7b2274726169745f74797065223a22436f6c6f722032222c2276616c7560008201527f65223a2200000000000000000000000000000000000000000000000000000000602082015250565b6000613869602483613713565b91506138748261380d565b602482019050919050565b7f227d2c7b2274726169745f74797065223a22436f6c6f722033222c2276616c7560008201527f65223a2200000000000000000000000000000000000000000000000000000000602082015250565b60006138db602483613713565b91506138e68261387f565b602482019050919050565b7f227d2c7b2274726169745f74797065223a22436f6c6f722034222c2276616c7560008201527f65223a2200000000000000000000000000000000000000000000000000000000602082015250565b600061394d602483613713565b9150613958826138f1565b602482019050919050565b7f227d2c7b2274726169745f74797065223a22436f6c6f722035222c2276616c7560008201527f65223a2200000000000000000000000000000000000000000000000000000000602082015250565b60006139bf602483613713565b91506139ca82613963565b602482019050919050565b7f227d5d0000000000000000000000000000000000000000000000000000000000600082015250565b6000613a0b600383613713565b9150613a16826139d5565b600382019050919050565b6000613a2c82613747565b9150613a37826137b9565b9150613a4382886137dc565b9150613a4e8261385c565b9150613a5a82876137dc565b9150613a65826138ce565b9150613a7182866137dc565b9150613a7c82613940565b9150613a8882856137dc565b9150613a93826139b2565b9150613a9f82846137dc565b9150613aaa826139fe565b91508190509695505050505050565b7f4d617820616d6f756e7420746f206d696e742069732032350000000000000000600082015250565b6000613aef601883612e95565b9150613afa82613ab9565b602082019050919050565b60006020820190508181036000830152613b1e81613ae2565b9050919050565b7f4e487b7100000000000000000000000000000000000000000000000000000000600052601160045260246000fd5b6000613b5f82612f3c565b9150613b6a83612f3c565b9250828202613b7881612f3c565b91508282048414831517613b8f57613b8e613b25565b5b5092915050565b7f496e636f7272656374204554482076616c75652073656e740000000000000000600082015250565b6000613bcc601883612e95565b9150613bd782613b96565b602082019050919050565b60006020820190508181036000830152613bfb81613bbf565b9050919050565b6000613c0d82612f3c565b9150613c1883612f3c565b9250828201905080821115613c3057613c2f613b25565b5b92915050565b60008190508160005260206000209050919050565b60006020601f8301049050919050565b600082821b905092915050565b600060088302613c987fffffffffffffffffffffffffffffffffffffffffffffffffffffffffffffffff82613c5b565b613ca28683613c5b565b95508019841693508086168417925050509392505050565b6000819050919050565b6000613cdf613cda613cd584612f3c565b613cba565b612f3c565b9050919050565b6000819050919050565b613cf983613cc4565b613d0d613d0582613ce6565b848454613c68565b825550505050565b600090565b613d22613d15565b613d2d818484613cf0565b505050565b5b81811015613d5157613d46600082613d1a565b600181019050613d33565b5050565b601f821115613d9657613d6781613c36565b613d7084613c4b565b81016020851015613d7f578190505b613d93613d8b85613c4b565b830182613d32565b50505b505050565b600082821c905092915050565b6000613db960001984600802613d9b565b1980831691505092915050565b6000613dd28383613da8565b9150826002028217905092915050565b613deb82612e8a565b67ffffffffffffffff811115613e0457613e03613297565b5b613e0e825461359e565b613e19828285613d55565b600060209050601f831160018114613e4c5760008415613e3a578287015190505b613e448582613dc6565b865550613eac565b601f198416613e5a86613c36565b60005b82811015613e8257848901518255600182019150602085019450602081019050613e5d565b86831015613e9f5784890151613e9b601f891682613da8565b8355505b6001600288020188555050505b505050505050565b600081905092915050565b50565b6000613ecf600083613eb4565b9150613eda82613ebf565b600082019050919050565b6000613ef082613ec2565b9150819050919050565b7f5472616e73666572206661696c65642e00000000000000000000000000000000600082015250565b6000613f30601083612e95565b9150613f3b82613efa565b602082019050919050565b60006020820190508181036000830152613f5f81613f23565b9050919050565b7f7b226e616d65223a22536f756e64734f6653756d6d6572202300000000000000600082015250565b6000613f9c601983613713565b9150613fa782613f66565b601982019050919050565b7f222c226465736372697074696f6e223a2254686520536f756e6473204f66205360008201527f756d6d657220636f6c6c656374696f6e20666561747572657320616e2061756460208201527f696f206d65646c6579206f662035207175696e74657373656e7469616c20737560408201527f6d6d6572206269726420736f6e677320616e64206120756e697175652076697360608201527f75616c697a6174696f6e207573696e67204261736520436f6c6f72732e220000608082015250565b6000614080609e83613713565b915061408b82613fb2565b609e82019050919050565b7f2c2261747472696275746573223a000000000000000000000000000000000000600082015250565b60006140cc600e83613713565b91506140d782614096565b600e82019050919050565b7f2c22696d616765223a22646174613a696d6167652f7376672b786d6c3b62617360008201527f6536342c00000000000000000000000000000000000000000000000000000000602082015250565b600061413e602483613713565b9150614149826140e2565b602482019050919050565b7f222c22616e696d6174696f6e5f75726c223a22646174613a746578742f68746d60008201527f6c3b6261736536342c0000000000000000000000000000000000000000000000602082015250565b60006141b0602983613713565b91506141bb82614154565b602982019050919050565b7f227d000000000000000000000000000000000000000000000000000000000000600082015250565b60006141fc600283613713565b9150614207826141c6565b600282019050919050565b600061421d82613f8f565b915061422982876137dc565b915061423482614073565b915061423f826140bf565b915061424b82866137dc565b915061425682614131565b915061426282856137dc565b915061426d826141a3565b915061427982846137dc565b9150614284826141ef565b915081905095945050505050565b7f646174613a6170706c69636174696f6e2f6a736f6e3b6261736536342c000000600082015250565b60006142c8601d83613713565b91506142d382614292565b601d82019050919050565b60006142e9826142bb565b91506142f582846137dc565b915081905092915050565b600061430b82612f3c565b91506000820361431e5761431d613b25565b5b600182039050919050565b60008160601b9050919050565b600061434182614329565b9050919050565b600061435382614336565b9050919050565b61436b61436682612fbf565b614348565b82525050565b600061437d828461435a565b60148201915081905092915050565b7f4e487b7100000000000000000000000000000000000000000000000000000000600052603260045260246000fd5b7f3c7265637420783d220000000000000000000000000000000000000000000000600082015250565b60006143f1600983613713565b91506143fc826143bb565b600982019050919050565b7f2220793d22000000000000000000000000000000000000000000000000000000600082015250565b600061443d600583613713565b915061444882614407565b600582019050919050565b7f222077696474683d2231303022206865696768743d22313030222066696c6c3d60008201527f2223000000000000000000000000000000000000000000000000000000000000602082015250565b60006144af602283613713565b91506144ba82614453565b602282019050919050565b7f22202f3e00000000000000000000000000000000000000000000000000000000600082015250565b60006144fb600483613713565b9150614506826144c5565b600482019050919050565b600061451d82876137dc565b9150614528826143e4565b915061453482866137dc565b915061453f82614430565b915061454b82856137dc565b9150614556826144a2565b915061456282846137dc565b915061456d826144ee565b915081905095945050505050565b600061458782856137dc565b915061459382846137dc565b91508190509392505050565b7f2300000000000000000000000000000000000000000000000000000000000000600082015250565b60006145d5600183613713565b91506145e08261459f565b600182019050919050565b60006145f6826145c8565b915061460282846137dc565b915081905092915050565b600080fd5b600080fd5b60008151905061462681612f46565b92915050565b60008151905061463b81613226565b92915050565b600067ffffffffffffffff82111561465c5761465b613297565b5b602082029050602081019050919050565b600061468061467b84613312565b6132f7565b90508281526020810184848401111561469c5761469b613292565b5b6146a7848285612ea6565b509392505050565b600082601f8301126146c4576146c3613091565b5b81516146d484826020860161466d565b91505092915050565b60006146f06146eb84614641565b6132f7565b905080838252602082019050602084028301858111156147135761471261309b565b5b835b8181101561475a57805167ffffffffffffffff81111561473857614737613091565b5b80860161474589826146af565b85526020850194505050602081019050614715565b5050509392505050565b600082601f83011261477957614778613091565b5b81516147898482602086016146dd565b91505092915050565b6000608082840312156147a8576147a761460d565b5b6147b260806132f7565b905060006147c284828501614617565b60008301525060206147d68482850161462c565b60208301525060406147ea84828501614617565b604083015250606082015167ffffffffffffffff81111561480e5761480d614612565b5b61481a84828501614764565b60608301525092915050565b60006020828403121561483c5761483b612dc5565b5b600082015167ffffffffffffffff81111561485a57614859612dca565b5b61486684828501614792565b91505092915050565b60006020828403121561488557614884612dc5565b5b600082015167ffffffffffffffff8111156148a3576148a2612dca565b5b6148af848285016146af565b91505092915050565b60006148c382612f3c565b91506148ce83612f3c565b92508282039050818111156148e6576148e5613b25565b5b92915050565b7f3c68746d6c3e3c686561643e3c7363726970743e000000000000000000000000600082015250565b6000614922601483613713565b915061492d826148ec565b601482019050919050565b7f76617220746f6b656e49643d0000000000000000000000000000000000000000600082015250565b600061496e600c83613713565b915061497982614938565b600c82019050919050565b7f2c617564696f46696c6555726c3d270000000000000000000000000000000000600082015250565b60006149ba600f83613713565b91506149c582614984565b600f82019050919050565b600081546149dd8161359e565b6149e78186613713565b94506001821660008114614a025760018114614a1757614a4a565b60ff1983168652811515820286019350614a4a565b614a2085613c36565b60005b83811015614a4257815481890152600182019150602081019050614a23565b838801955050505b50505092915050565b7f272c617564696f46697273744672616d654261736536343d2700000000000000600082015250565b6000614a89601983613713565b9150614a9482614a53565b601982019050919050565b7f273b3c2f7363726970743e000000000000000000000000000000000000000000600082015250565b6000614ad5600b83613713565b9150614ae082614a9f565b600b82019050919050565b7f3c6d657461206e616d653d2776696577706f72742720636f6e74656e743d277760008201527f696474683d6465766963652d77696474682c20696e697469616c2d7363616c6560208201527f3d312c206d6178696d756d2d7363616c653d31273e3c7374796c65207479706560408201527f3d27746578742f637373273e68746d6c7b6865696768743a313030253b77696460608201527f74683a313030257d626f64797b6865696768743a313030253b77696474683a3160808201527f3030253b6d617267696e3a303b70616464696e673a307d63616e7661737b646960a08201527f73706c61793a626c6f636b3b6d61782d77696474683a313030253b6d61782d6860c08201527f65696768743a313030253b70616464696e673a303b6d617267696e3a6175746f60e08201527f3b646973706c61793a626c6f636b3b706f736974696f6e3a6162736f6c7574656101008201527f3b746f703a303b626f74746f6d3a303b6c6566743a303b72696768743a303b6f6101208201527f626a6563742d6669743a636f6e7461696e3b7d3c2f7374796c653e000000000061014082015250565b6000614ca161015b83613713565b9150614cac82614aeb565b61015b82019050919050565b7f3c2f686561643e00000000000000000000000000000000000000000000000000600082015250565b6000614cee600783613713565b9150614cf982614cb8565b600782019050919050565b7f3c2f68746d6c3e00000000000000000000000000000000000000000000000000600082015250565b6000614d3a600783613713565b9150614d4582614d04565b600782019050919050565b6000614d5b82614915565b9150614d6682614961565b9150614d7282876137dc565b9150614d7d826149ad565b9150614d8982866149d0565b9150614d9482614a7c565b9150614da082856137dc565b9150614dab82614ac8565b9150614db682614c93565b9150614dc182614ce1565b9150614dcd82846137dc565b9150614dd882614d2d565b915081905095945050505050565b600081519050919050565b600082825260208201905092915050565b6000614e0d82614de6565b614e178185614df1565b9350614e27818560208601612ea6565b614e3081612ed0565b840191505092915050565b6000608082019050614e506000830187612fd1565b614e5d6020830186612fd1565b614e6a6040830185613067565b8181036060830152614e7c8184614e02565b905095945050505050565b600081519050614e9681612dfb565b92915050565b600060208284031215614eb257614eb1612dc5565b5b6000614ec084828501614e87565b91505092915050565b7f4e487b7100000000000000000000000000000000000000000000000000000000600052601260045260246000fd5b6000614f0382612f3c565b9150614f0e83612f3c565b925082614f1e57614f1d614ec9565b5b828204905092915050565b6000614f3482612f3c565b9150614f3f83612f3c565b925082614f4f57614f4e614ec9565b5b82820690509291505056fe49443304000000000022545353450000000e0000034c61766636312e342e3130300000000000000000000000fffb50000000000000000000000000000000000000000000000000000000000000000000496e666f0000000f0000015b00008e72000406090b0e101316181b1e202325282a2c2f313437393c3f414446494b4e505355585a5d606265676a6c6f717476797b7e818386888b8d909295979a9c9fa2a5a7aaacaeb1b3b6b8bbbdc0c3c6c8cbcdd0d2d5d7d9dcdee1e4e7e9eceef1f34142434445464748494a4b4c4d4e4f505152535455565758595a6162636465666768696a6b6c6d6e6f707172737475767778797a303132333435363738392b2f2274726169745f74797065223a22436f6c6f72204e616d65222c2276616c7565223a223c626f64792069643d626f64793e3c6469763e3c63616e7661732069643d63616e7661732077696474683d3830307078206865696768743d38303070783e3c2f63616e7661733e3c617564696f2069643d617564696f3e3c736f757263652069643d736f757263652d6f6767207372633d222220747970653d617564696f2f6f67673e3c736f757263652069643d736f757263652d776176207372633d222220747970653d617564696f2f7761763e3c736f757263652069643d736f757263652d6d7033207372633d222220747970653d617564696f2f6d70333e3c2f617564696f3e3c2f6469763e3c7363726970743e76617220653d626173653634546f48657828617564696f46697273744672616d65426173653634292c743d2230313233343536373839616263646566222c613d646f63756d656e742e676574456c656d656e74427949642822626f647922292c6e3d646f63756d656e742e676574456c656d656e7442794964282263616e76617322292c723d646f63756d656e742e676574456c656d656e74427949642822617564696f22292c6f3d646f63756d656e742e676574456c656d656e74427949642822736f757263652d6f676722292c643d646f63756d656e742e676574456c656d656e74427949642822736f757263652d77617622292c693d646f63756d656e742e676574456c656d656e74427949642822736f757263652d6d703322292c753d6e2e676574436f6e746578742822326422292c733d302c633d22373336373330222c6c3d22414341323932222c6d3d22443036383039222c673d22454134353341222c663d22313833303341222c623d6e6577204172726179283634293b66756e6374696f6e2064726177426f6172644672616d6528652c74297b666f72286c657420723d303b723c383b722b2b29666f72286c6574206f3d303b6f3c383b6f2b2b297b76617220613d742b362a722b34382a6f2c6e3d625b382a6f2b725d3b696628216e296e3d68617368436f6c6f72436f646528652e736c69636528612c612b36292c746f6b656e49642c61293b752e636c65617252656374283130302a722c3130302a6f2c3130302c313030292c752e66696c6c5374796c653d2223222b6e2c752e66696c6c52656374283130302a722c3130302a6f2c3130302c313030297d7d66756e6374696f6e2064726177426f6172642865297b72657175657374416e696d6174696f6e4672616d65282866756e6374696f6e20616e696d61746528297b64726177426f6172644672616d6528652c73292c72657175657374416e696d6174696f6e4672616d6528616e696d617465297d29293b736574496e74657276616c282866756e6374696f6e206368616e6765436f6c6f7228297b28732b3d333834292b3338343e652e6c656e677468262628733d30297d292c34372e33323934393837363735297d66756e6374696f6e20627566326865782865297b72657475726e5b2e2e2e6e65772055696e743841727261792865295d2e6d61702828653d3e652e746f537472696e67283136292e706164537461727428322c2230222929292e6a6f696e282222297d66756e6374696f6e20627566326261736536342865297b666f722876617220743d22222c613d6e65772055696e743841727261792865292c6e3d612e627974654c656e6774682c723d303b723c6e3b722b2b29742b3d537472696e672e66726f6d43686172436f646528615b725d293b72657475726e2062746f612874297d66756e6374696f6e20626173653634546f4865782865297b666f722876617220743d61746f622865292c613d22222c6e3d303b6e3c742e6c656e6774683b6e2b2b297b76617220723d742e63686172436f64654174286e292e746f537472696e67283136293b612b3d323d3d3d722e6c656e6774683f723a2230222b727d72657475726e20612e746f55707065724361736528297d66756e6374696f6e2068617368436f6c6f72436f646528652c612c6e297b76617220723d426967496e74284e756d62657228603078247b657d60292b612b6e293b723d28723d2828723d28723e3e426967496e74283136295e72292a426967496e7428373332343434373529293e3e426967496e74283136295e72292a426967496e7428373332343434373529293e3e426967496e74283136295e722c723d4e756d626572287225426967496e7428313637373732313629293b666f7228766172206f3d22222c643d303b643c363b642b2b297b6f2b3d745b723e3e342a642631355d7d72657475726e206f7d625b31385d3d662c625b31395d3d632c625b32305d3d6c2c625b32315d3d662c625b32365d3d6c2c625b32375d3d6d2c625b32385d3d672c625b32395d3d632c625b33345d3d632c625b33355d3d672c625b33365d3d6d2c625b33375d3d6c2c625b34325d3d662c625b34335d3d6c2c625b34345d3d632c625b34355d3d662c64726177426f6172644672616d6528652c30292c612e6164644576656e744c697374656e65722822636c69636b222c28653d3e7b76617220743d6e657720584d4c48747470526571756573743b742e6f70656e2822474554222c617564696f46696c6555726c2c2130292c742e726573706f6e7365547970653d226172726179627566666572222c742e6f6e6c6f61643d66756e6374696f6e28297b636f6e737420653d6275663268657828742e726573706f6e7365292c613d6275663262617365363428742e726573706f6e7365293b6f2e7372633d22646174613a617564696f2f6f67673b6261736536342c222b612c642e7372633d22646174613a617564696f2f7761763b6261736536342c222b612c692e7372633d22646174613a617564696f2f6d70333b6261736536342c222b612c722e6c6f6f703d21302c722e6c6f616428292c64726177426f6172642865292c722e706c617928297d2c742e73656e6428297d29293b3c2f7363726970743e3c2f626f64793e3c7376672076657273696f6e3d22312e312220786d6c6e733d22687474703a2f2f7777772e77332e6f72672f323030302f737667222076696577426f783d223020302038303020383030222077696474683d2238303022206865696768743d22383030223e3c726563742077696474683d2238303022206865696768743d22383030222066696c6c3d2223303030303030222f3ea2646970667358221220a6f8c1b797d858dac0a918010e07a939a7cc31e4be5296f88593665f6f67263464736f6c634300081a0033",
  "linkReferences": {},
  "deployedLinkReferences": {}
}